:1000000032C1000061C100005FC100005DC100009D
:100010005BC1000059C1000057C1000055C100007C
:1000200053C1000051C100004FC100004DC100008C
:100030004BC1000049C1000047C1000045C100009C
:1000400043C1000041C100003FC100003DC10000AC
:100050003BC1000039C1000037C100000C94180DED
:1000600033C100000C94E20C0C94B80C2DC10000BC
:100070002BC1000029C1000027C1000025C10000DC
:1000800023C1000021C100001FC100001DC10000EC
:100090001BC1000019C1000017C100000C94620DC3
:1000A00013C1000011C100000FC100000DC100000C
:1000B0000BC1000009C1000007C1000005C100001C
:1000C00003C1000001C10000FFC00000FDC000002E
:1000D000FBC00000F9C00000F7C00000F5C0000040
:1000E000F3C0000000002100240027002A002D009A
:1000F0003000330001010000040107010A01000083
:100100002200250028002B002E00310034000201BF
:100110000000050108010B0100000A0B02090C0D8B
:100120000E080703040100000000000000000000AA
:1001300000000000000000000000000000000000BF
:10014000000000001211100000000000000000007C
:10015000000000000000000000000000000000306F
:1001600022416D527C20390F2170084008523F0611
:100170005B4F666D7D077F6F484839480F535F7747
:100180007C395E79713D76061E763815373F736788
:10019000316D783E1C2A766E5B39640F2308207718
:1001A0007C585E79716F74041E761815545C736701
:1001B000506D781C1C2A766E5B39300F40000000B1
:1001C00020002300260029002C002F00320000010F
:1001D00000000301060109010505050507050808DA
:1001E0000808020202020A0A0808040404040101C1
:1001F00001010101010103030303030303030407D6
:1002000007070C0C0C0C0C0C0C0C0202020206066C
:100210000606060606060B0B0B0B0B0B0B0B01025F
:100220001020200808102040102040800201020108
:1002300008040201010204081020408080402010C0
:100240000804020180040201804020100804020119
:100250000804020101020408102040800102040881
:1002600010204080810E11241FBECFEFD1E2DEBFEF
:10027000CDBF00E00CBF26E0A6E8B4E001C01D92AF
:10028000A532B207E1F714E0A0E0B2E0EEEFFBE246
:1002900000E00BBF02C007900D92A638B107D9F756
:1002A00011E0C3E3D1E000E006C021970109802FEF
:1002B000FE010E94DD12C233D10780E00807A9F7D2
:1002C0000E94380F0C94FD159BCECF92DF92EF92D7
:1002D000FF92CF93DF93B091E805A0E08111AB2F9F
:1002E0008091E90590E0880F991FAC0142545E4F60
:1002F000C090EE05D090EF05E090F005F090F1058C
:1003000030E020E0FA01C591D491E881B90190E094
:1003100080E0EB23EA130AC02F5F3F4F6C157D0589
:100320008E059F0578F36FEF7FEFCB01DF91CF91C3
:10033000FF90EF90DF90CF900895EEEFF4E0A0896A
:10034000B18982E08C93A485B5858DE08C93A685D8
:10035000B78584E08C93108EA489B58986E08C9350
:10036000A289B3898C9180618C93A289B3898C9185
:1003700088608C93A289B3898C9180688C93028861
:10038000F389E02D80818F7D8083089580910F0611
:10039000909110068230910538F0880F991F880FD0
:1003A000991F05970197F1F70895E82F803B51F0C9
:1003B00080EE8E0F803640F4E052FF0BE25AFE4F83
:1003C0008491089583E6089580E00895AF92BF92E6
:1003D000CF92DF92EF92FF920F931F93CF93DF9311
:1003E0006C017B018B01040F151FEB015E01AE1840
:1003F000BF08C017D10759F06991D601ED91FC9162
:100400000190F081E02DC6011995892B79F7C5017E
:10041000DF91CF911F910F91FF90EF90DF90CF90E0
:10042000BF90AF9008950895FC01538D448D252F02
:1004300030E0842F90E0821B930B541710F0CF967E
:10044000089501970895FC01918D828D981761F0B0
:10045000A28DAE0FBF2FB11D5D968C91928D9F5FC7
:100460009F73928F90E008958FEF9FEF0895FC01A6
:10047000918D828D981731F0828DE80FF11D858D59
:1004800090E008958FEF9FEF0895FC01918D228DEC
:10049000892F90E0805C9F4F821B91098F73992771
:1004A00008958EEF94E0F1DF21E0892B09F420E03C
:1004B000822F0895FC01A48DA80FB92FB11DA35A56
:1004C000BF4F2C91848D90E001968F739927848F74
:1004D000A689B7892C93A089B1898C918370806497
:1004E0008C93938D848D981306C00288F389E02D38
:1004F00080818F7D80830895EF92FF920F931F93E9
:10050000CF93DF93EC0181E0888F9B8D8C8D9813C6
:100510001AC0E889F989808185FF15C09FB7F894D2
:10052000EE89FF896083E889F9898081837080641E
:1005300080839FBF81E090E0DF91CF911F910F9169
:10054000FF90EF900895F62E0B8D10E00F5F1F4F78
:100550000F731127E02E8C8D8E110BC00FB607FC88
:10056000FACFE889F989808185FFF5CFCE01A2DF36
:10057000F2CFEB8DEC0FFD2FF11DE35AFF4FF08210
:100580009FB7F8940B8FEA89FB8980818062D0CF76
:10059000CF93DF93EC01888D8823B1F0AA89BB89C2
:1005A000E889F9898C9185FD03C0808186FD0CC0A6
:1005B0000FB607FCF7CF8C9185FFF2CF808185FFC6
:1005C000EDCFCE0177DFEACFDF91CF91089580E0C4
:1005D00090E0892B21F065DF81110E94000080E00E
:1005E00090E0892B49F080E090E0892B29F00E946F
:1005F000000081110E94000080E090E0892B49F00A
:1006000080E090E0892B29F00E94000081110E9477
:10061000000080E090E0892B49F080E090E0892B99
:1006200029F00E94000081110C940000089581506F
:10063000823108F05AC0E82FF0E08827ED5DFC4FCA
:100640008F4F0C94DD124303470335033B033F03F5
:1006500075034A03500354035A035E03620368039D
:100660006C037503700376037A03809180008F77A3
:10067000809380000895809180008F7DF9CF8091D4
:100680008000877FF5CF84B58F7784BD089584B5CA
:100690008F7DFBCF8091B0008F778093B00008955D
:1006A0008091B0008F7DF9CF809190008F778093FB
:1006B00090000895809190008F7DF9CF80919000F7
:1006C000877FF5CF8091A0008F778093A000089559
:1006D0008091A0008F7DF9CF8091A000877FF5CF1A
:1006E000809120018F7780932001089580912001CF
:1006F0008F7DF9CF80912001877FF5CFCF93DF9356
:10070000282F30E0F901E85EFE4F8491F901E25EA6
:10071000FD4FD491F901E852FE4FC491CC2399F0DA
:10072000811185DFEC2FF0E0EE0FFF1FE254FE4F4A
:10073000A591B491EC91ED2381E090E009F480E083
:10074000DF91CF91089580E090E0FACF1F93CF938F
:10075000DF93282F30E0F901E85EFE4F8491F90124
:10076000E25EFD4FD491F901E852FE4FC491CC23D3
:10077000A1F0162F81115BDFEC2FF0E0EE0FFF1FD1
:10078000E250FF4FA591B4918FB7F894EC911111FD
:1007900008C0D095DE23DC938FBFDF91CF911F91EE
:1007A0000895DE2BF8CFCF93DF9390E0FC01E25E5B
:1007B000FD4F249188529E4FFC0184918823C9F0FB
:1007C00090E0880F991FFC01EC51FF4FA591B49167
:1007D000FC01E250FF4FC591D49161110DC09FB74C
:1007E000F8948C91209582238C93888128232883E8
:1007F0009FBFDF91CF910895623051F49FB7F89475
:100800003C91822F809583238C93E8812E2BEFCF10
:100810008FB7F894EC912E2B2C938FBFEACF60E02A
:1008200080911C06C0DF61E080911B068FDF809104
:100830001C0664DF0197D9F360E080911B0686CF28
:10084000CF93DF93CCE0D6E061E08981ACDF9EDD21
:1008500060E08881A8DF9ADD60E08981A4DFDF9114
:10086000CF9194CD0F931F93CF93DF93D82FC8E0F0
:1008700061E080910C0697DF89DD0D2F10E060E0CC
:10088000D0FF61E080910D068EDF80DD60E0809119
:100890000C0689DF7BDD15950795D02FC15041F7F8
:1008A00061E080910C067FDF60E080910D067BDFC8
:1008B0006DDD60E080910C0676DF68DD80910D06CD
:1008C0001DDFC82F811104C061E080910D066BDF30
:1008D0005DDD61E080910C0666DF58DD81E0C111CD
:1008E00001C080E0DF91CF911F910F91089561E0E9
:1008F00080910D0658DF4ACD0F931F93CF93DF935E
:100900008C01F5DF80E4AEDF9BDFF1DF80ECAADF56
:10091000E8010C5F1F4F8991A5DFC017D107D9F7F8
:100920008FDFE5DF80910E068F7080589BDFDF91AF
:10093000CF911F910F9184CF3FB7F8948091FA0423
:100940009091FB04A091FC04B091FD0426B5A89BF6
:1009500005C02F3F19F00196A11DB11D3FBFBA2F51
:10096000A92F982F8827BC01CD01620F711D811D11
:10097000911D42E0660F771F881F991F4A95D1F796
:1009800008958F929F92AF92BF92CF92DF92EF9293
:10099000FF926B017C01D0DF4B015C01C114D104DB
:1009A000E104F104B1F0C8DF681979098A099B09EB
:1009B000683E73408105910588F321E0C21AD10891
:1009C000E108F10888EE880E83E0981EA11CB11C96
:1009D000E5CFFF90EF90DF90CF90BF90AF909F90CA
:1009E0008F9008952FB7F8946091F6047091F704F2
:1009F0008091F8049091F9042FBF0895CF92DF926F
:100A0000EF92FF920F931F93CF93DF93CDB7DEB793
:100A1000C054D1400FB6F894DEBF0FBECDBFE2DFA9
:100A20000091EA051091EB052091EC053091ED0560
:100A30006B017C01C01AD10AE20AF30A9701860110
:100A4000003D17402105310590F48091F205C05C0E
:100A5000DE4F0FB6F894DEBF0FBECDBFDF91CF9152
:100A60001F910F91FF90EF90DF90CF9008956093CA
:100A7000EA057093EB058093EC059093ED051092D9
:100A8000E5051092E4051092E3051092E20510923C
:100A9000E10562E08091E60586DE61E070E080E0DD
:100AA00090E06FDF61E08091E6057DDE60E080919F
:100AB000E6054CDE8091E7058551823010F58BE22A
:100AC00091E10197F1F762E08091E6056CDE80919B
:100AD000F30590E08230910538F0880F991F880F58
:100AE000991F05970197F1F7F89480E0EEDB6F3FCF
:100AF0007F4F8F4F9F4F59F41092F205789480E00A
:100B0000A6CF64E170E080E090E03BDFDCCF81E0E5
:100B1000DCDB6F3F7F4F8F4F9F4F71F38E010F5F75
:100B20001F4F6E012FEBC21A2EEFD20A780180E020
:100B3000CCDBF701608371838283938381E0C5DB23
:100B4000F7016483758386839783F8E0EF0EF11CC9
:100B5000EC14FD0461F7789430E020E0F801C080E7
:100B6000D180E280F3804481558166817781FFEFF7
:100B7000CF16DF06EF06FF0631F04F3F8FEF580725
:100B80006807780719F41092F205B9CFF90183E0EC
:100B9000F595E7958A95E1F7EF51FA4F8081880F37
:100BA000C416D506E606F70610F180832F5F3F4F87
:100BB000085F1F4F2832310589F64091E5052091E5
:100BC000E1058091E205280F3327331F8091E3056B
:100BD000280F311D8091E405820F932F911D9927D5
:100BE0004817190681F681E08093F20530CF8160C5
:100BF000DCCFCF92DF92EF92FF92CF93DF93C82F9B
:100C0000FDDE882341F08091E7058C3009F45EC059
:100C100038F48B30F1F060E070E080EC9FE74FC07B
:100C200085518230C0F7D091E3056D2F70E0762FAB
:100C3000662766277F778091E405682B90E080E047
:100C40000E94F9102DEC3CEC4CEC5DE30E945A1133
:100C500059C06091E30570E090E080E00E94F910D7
:100C60006B017C01D091E405D7FF0AC0AC019B0168
:100C700060E070E080E89FEB0E9430126B017C0125
:100C8000DF706D2F70E090E080E00E94FB102DEC93
:100C90003CEC4CEC5DE30E945A11A70196010E94C6
:100CA0003112CC2361F026E636E646EE5FE30E9481
:100CB0005A1120E030E040E052E40E943112DF910E
:100CC000CF91FF90EF90DF90CF900895D091E30502
:100CD0006D2F70E090E080E00E94F9106B017C01C4
:100CE0006091E4056F7070E090E080E00E94FB107E
:100CF0002DEC3CEC4CEC5DE30E945A11A7019601EF
:100D00000E943112D7FFCDCF9058CBCFCF92DF9238
:100D1000EF92FF9273DE882349F08091E7058B30D4
:100D200028F08D3040F08551823030F160E070E085
:100D300080EC9FE71CC06091E20570E090E080E0ED
:100D40000E94FB102DEC3CEC4CEC5DE30E945A1130
:100D50006B017C016091E10570E090E080E00E9411
:100D6000FB109B01AC01C701B6010E943112FF903C
:100D7000EF90DF90CF9008956091E1057091E205CA
:100D800076276727762790E080E00E94F9102DEC07
:100D90003CEC4CEC5DE30E945A11E9CF089585EDDF
:100DA0008093BC008091BC0084FDFCCF1092CF04E6
:100DB00008952091AB04260F3327331F21323105CC
:100DC000ECF42091CF04FC0190E080E0243069F045
:100DD00082E00895A091AB042191AC0145575B4F8F
:100DE000A40FB52FB11D2C930196861798F380910F
:100DF000AB04680F6093AB0480E0089581E0089530
:100E00008FEF9FEF08958FEF9FEF089580918A04F1
:100E100090E09195819591090895CF93DF93CB014F
:100E2000EA01642FC6DFCE01DF91CF910895CF9301
:100E3000DF931F92CDB7DEB7698361E0CE010196E3
:100E4000B8DF81E090E00F90DF91CF91089590E0BE
:100E500080E00895EF92FF920F931F93CF93DF935B
:100E6000CDB7DEB7C05AD1400FB6F894DEBF0FBE83
:100E7000CDBF80EA91E0E0E0F2E0DE011196019062
:100E80000D920197E1F78E010F5F1F4F7E018FE5F5
:100E9000E81A8EEFF80AC8012FDD62E370E080E007
:100EA00090E06FDD0C5F1F4F0E151F05A1F7C056B8
:100EB000DE4F0FB6F894DEBF0FBECDBFDF91CF91EE
:100EC0001F910F91FF90EF9008950F931F93CF9371
:100ED000DF93082F162FD42FC8E06D2F661F6627CB
:100EE000661F802F33DCDD0F61E0812F2FDC60E097
:100EF000812F2CDCC15089F7DF91CF911F910F9189
:100F000008951F93CF93DF93182FCBE1D6E061E0D4
:100F1000898149DC61E0898119DC61E0888116DC26
:100F200060E0898113DC60E0888110DC412F6881FA
:100F30008981DF91CF911F91C8CFCF93DF93EC01CF
:100F400060E08E8103DC61E08E8100DC60E08E81F8
:100F5000FDDB8BE891E00197F1F7DF91CF910895E8
:100F6000CF92DF92EF92FF920F931F93CF93DF9375
:100F70006C017C0187E0E80EF11CD0E0C0E0062F98
:100F800010E0B8010C2E02C0759567950A94E2F73F
:100F90006170F70181917F01D9DB2196C430D105C1
:100FA00081F7C601DF91CF911F910F91FF90EF90D4
:100FB000DF90CF90C2CFCF92DF92EF92FF920F934C
:100FC0001F93CF93DF93EC01F62E642F8C81BEDB51
:100FD0008D818F3F11F060E0B9DB0F2D10E08F8520
:100FE00084FF23C06E0187E0C80ED11CF12CE12CD8
:100FF000B8010E2C02C0759567950A94E2F76170EE
:10100000F60181916F01A2DBFFEFEF1AFF0A88E082
:10101000E816F10469F7CE01DF91CF911F910F918E
:10102000FF90EF90DF90CF9088CFB80184E0759566
:1010300067958A95E1F7CE0193DF6F2DCE01DF91A1
:10104000CF911F910F91FF90EF90DF90CF9088CFBD
:1010500040E0682F84EF95E0AECF81E0F9DF8BE3CD
:101060009FE10197F1F70895CF93DF93823029F440
:101070009091030698609093030680930706109260
:10108000080680E48093090680E180930A0680E5E3
:1010900080930B0661E08091F80585DB8091F9056E
:1010A0008F3F11F061E07FDB61E08091FA057BDB2F
:1010B000C4EFD5E09E01245F35408091030684FD96
:1010C0000AC084E090E02196281739073CF461E0DB
:1010D0008E8169DBEFCF88E090E0F5CF8BE39DE078
:1010E0000197F1F760E08091F80530DB60E08091D6
:1010F000FA052CDB8091F9058F3F11F060E026DBCB
:101100008091030684FD2CC063E084EF95E028DF26
:10111000CBE4D6E4CE010197F1F763E084EF95E0EC
:101120001FDF2197F1F763E084EF95E019DF83E596
:1011300092E00197F1F762E084EF95E011DF809192
:101140000306806285DF84E0809304068CE080DF04
:1011500084DF82E08093050686E0DF91CF9178CF2F
:10116000806276DF8BE496E40197F1F780910306C5
:1011700080626EDF83E592E00197F1F780910306CC
:10118000806266DFDCCF90910706891710F08FEF41
:10119000890FE82FF0E0EC50FA4F8489806858CF2F
:1011A00041E009DF81E090E008951F93CF93DF9342
:1011B00000D01F92CDB7DEB78EEF94E044D98EEF0A
:1011C00094E041D910E08A3371F0E1E0F0E0EC0FF7
:1011D000FD1FE10FF11D17FDFA9580831F5F8EEF54
:1011E00094E031D9F0CFCE010196DED7182F8EEFE3
:1011F00094E029D98053990B8230910518F4682F17
:10120000812FA4DA8EEF94E01ED98A3011F08D3050
:10121000C9F78EEF94E02BD98A3019F48EEF94E061
:1012200012D90F900F900F900F90DF91CF911F91D7
:101230000895FB0101900020E9F73197AF01461BAB
:10124000570BDC01ED91FC910280F381E02D1994A4
:101250008F929F92AF92BF920F931F93CF93DF9382
:10126000CDB7DEB7A1970FB6F894DEBF0FBECDBFE6
:1012700019A2423008F44AE08E010F5D1F4F842E00
:10128000912CB12CA12CA50194010E940E12E62FE5
:10129000B901CA01EA30FCF4E05DD801EE938D019A
:1012A000232B242B252B79F790E080E0109721F059
:1012B000BD018EEF94E0BDDFA1960FB6F894DEBFBE
:1012C0000FBECDBFDF91CF911F910F91BF90AF9017
:1012D0009F908F900895E95CE0CF0F931F93CF9379
:1012E000DF93EC01A6DF8C016EEB73E0CE01A1DF92
:1012F000800F911FDF91CF911F910F91089599CF8A
:101300004F925F926F927F928F929F92AF92BF9215
:10131000CF92DF92EF92FF920F931F93CF93DF93C1
:10132000CDB7DEB7CC52D1400FB6F894DEBF0FBEBA
:10133000CDBF58DB672B682B692B09F4E5C052DB66
:1013400000918604109187042091880430918904CB
:10135000601771078207930708F425C1009186047E
:101360001091870420918804309189046B017C01DD
:10137000C01AD10AE20AF30A970186010A3F110551
:101380002105310508F4C7C0609386047093870473
:10139000809388049093890484EF91E0A0E0B0E00A
:1013A0008093A9059093AA05A093AB05B093AC05D3
:1013B0001092AD051092AE051092AF051092B005D7
:1013C0008091A1059091A205A091A305B091A405DB
:1013D0008093A5059093A605A093A705B093A805B3
:1013E00001DB6093A1057093A2058093A305909300
:1013F000A4058EEF94E03BD8843609F4D6DEF2DA09
:1014000060939D0570939E0580939F059093A00522
:10141000E9DA6B017C0161EC73E08EEF94E06FDF41
:101420004AE061E070E080E090E012DF68EC73E099
:101430008EEF94E064DF4AE0C701B60109DF6AEC91
:1014400073E08EEF94E05BDF8091A1059091A2059F
:10145000A091A305B091A405A7019601281B390B03
:101460004A0B5B0BCA01B9014AE0F2DE6AEC73E099
:101470008EEF94E044DF6091A1057091A205809108
:10148000A3059091A4050091A5051091A6052091B2
:10149000A7053091A805601B710B820B930B4AE0E6
:1014A000D7DE6CEC73E08EEF94E029DF9BDA4AE044
:1014B000CFDE6EEC73E08EEF94E00FDF93DA6B011A
:1014C0007C014B015C0135E0830E911CA11CB11C19
:1014D00089DA6C157D058E059F0528F0861697061E
:1014E000A806B906A8F78EEF94E00E94370284366A
:1014F00009F45BDE77DA6093A1057093A20580930F
:10150000A3059093A40507C06DDA623071058105CB
:10151000910508F014CF63E874E08EEF94E0DDDE0F
:10152000F5DB4B015C0180E064DB6B017C0181E059
:1015300060DB2B013C01A5019401C501B4010E94AF
:10154000C612811110C0A7019601C701B6010E9401
:10155000C612811108C0A3019201C301B2010E9409
:10156000C612882349F179DD80E00DDE65ED73E078
:1015700084EF95E0B2DEC45DDE4F0FB6F894DEBFB7
:101580000FBECDBFDF91CF911F910F91FF90EF90D4
:10159000DF90CF90BF90AF909F908F907F906F9093
:1015A0005F904F90089560938604709387048093B2
:1015B000880490938904D2CE20E030E048EC52E4D5
:1015C000C501B40177D6B1D704E610E0CB01B8016C
:1015D000E1D79F938F93C501B401A7D77F936F93F2
:1015E00081EE93E09F938F93AE014F5F5F4F5A015F
:1015F0005F934F930E94351320E030E048EC52E4B3
:10160000C701B60157D691D7CB01B801C3D79F9375
:101610008F93C701B60189D77F936F9385EF93E0CE
:101620009F938F938E010B591F4F1F930F930E940F
:101630003513B5018EEF94E062DEB8018EEF94E0D1
:101640005EDE0BDD80E09FDDB50184EF95E057DEC7
:1016500081E099DDB80184EF95E051DE68E873E13F
:1016600080E090E08ED90FB6F894DEBF0FBECDBFFC
:1016700080912406882309F4E7C084EE8093BC009F
:101680008091BC0087FFFCCF80ED8093BB0084EC91
:101690008093BC008091BC0087FFFCCF1092BB0000
:1016A00084EC8093BC008091BC0087FFFCCF84EE6B
:1016B0008093BC008091BC0087FFFCCF81ED8093BC
:1016C000BB0084EC8093BC008091BC0087FFFCCF02
:1016D000EDE1F6E084E296E034EC3093BC0020913A
:1016E000BC0027FFFCCF2091BB0021938E179F07E2
:1016F000A1F784E88093BC008091BC0087FFFCCFF9
:1017000084E98093BC0080911D06982F9295977074
:101710002AE08F70382F929F300D112480911E0681
:10172000982F929597708F70482F929F400D11249B
:1017300060911F06562F5F70862F90E067FF0EC1E5
:1017400065FB882780F9FCE08F9F500D1124609184
:101750002006209121069091220680912306509325
:1017600013064093140630931506422F4295477096
:101770003AE02F70439F200D112420931606292F45
:10178000229527709F70239F900D11249093170628
:10179000982F92959F708F70939F800D112490E0E9
:1017A0008053984F909319068093180660931A06F9
:1017B00054DC809116061F928F93809117061F921A
:1017C0008F93809119068F93809118068F9388E0EC
:1017D00094E09F938F931F9212E31F937E0129EC55
:1017E000E20EF11CFF92EF9204D7809115061F9232
:1017F0008F93809114061F928F93809113061F92EE
:101800008F938CE194E09F938F931F921F938E018F
:1018100005501F4F1F930F93ECD680E0B4DCB70147
:1018200084EF95E06CDD81E0AEDCB80184EF95E0FB
:1018300066DD64EC79E080E090E0A3D80FB6F89420
:10184000DEBF0FBECDBF97CE80ED5BDB0E940F04E5
:1018500061E080911C060E94D30340E060911B066A
:1018600080911C0632DB0E940F0481ED4ADB0E944E
:101870000F04EDE1CE2EE6E0DE2E10E000E060E0A9
:1018800080911C060E94D30377E0E72EF12CB12C47
:1018900061E080911B060E94A60380911C060E94B5
:1018A0007E0399270E2C01C0880F0A94EAF7B82A04
:1018B00060E080911B060E94A60391E0E91AF108FE
:1018C00038F7F601B1926F0180911C0661E0063095
:1018D0001105D9F10E94D30360E080911B060E949C
:1018E000A60360E080911C060E94A60361E080913F
:1018F0001B060E94A60360E080911B060E94A603BF
:1019000060E080911C060E94D3030F5F1F4F0730D9
:10191000110509F0B4CF61E080911C060E94D30349
:1019200060E080911C060E94A60361E080911B0686
:101930000E94A60361E080911C060E94A60360E05D
:1019400080911C060E94D303DECE0E94D30360E088
:1019500080911B060E94A60361E0C4CF64E09595C8
:1019600087956A95E1F78370829F500D1124EFCE21
:101970001F920F920FB60F9211240BB60F922F9356
:101980003F934F935F936F937F938F939F93AF9307
:10199000BF93EF93FF938EEF94E00E945A02FF9162
:1019A000EF91BF91AF919F918F917F916F915F91D7
:1019B0004F913F912F910F900BBE0F900FBE0F9044
:1019C0001F9018951F920F920FB60F9211240BB60D
:1019D0000F922F938F939F93EF93FF93E0910E05B8
:1019E000F0910F058081E0911405F091150582FDBD
:1019F0001DC09081809117058F5F8F73209118050E
:101A0000821741F0E0911705F0E0E250FB4F958F0F
:101A100080931705FF91EF919F918F912F910F90D8
:101A20000BBE0F900FBE0F901F9018958081F2CFC4
:101A30001F920F920FB60F9211242F933F938F9303
:101A40009F93AF93BF938091F6049091F704A09178
:101A5000F804B091F9043091F50423E0230F2D37F9
:101A600058F50196A11DB11D2093F5048093F6044D
:101A70009093F704A093F804B093F9048091FA04CA
:101A80009091FB04A091FC04B091FD040196A11D6E
:101A9000B11D8093FA049093FB04A093FC04B093CF
:101AA000FD04BF91AF919F918F913F912F910F9026
:101AB0000FBE0F901F90189526E8230F0296A11DC8
:101AC000B11DD2CF1F920F920FB60F9211240BB6F9
:101AD0000F922F933F934F935F936F937F938F93C7
:101AE0009F93AF93BF93EF93FF938091B900887F4B
:101AF000803609F44CC008F03FC0883209F4A6C013
:101B000028F5803109F49AC0C8F4882309F4F6C096
:101B1000883009F493C0FF91EF91BF91AF919F91ED
:101B20008F917F916F915F914F913F912F910F9086
:101B30000BBE0F900FBE0F901F901895883109F4BF
:101B400085C0803241F78093CE0414C0803409F4FC
:101B50009AC040F48033B9F38833E9F68093CE0419
:101B600085ECADC0803509F482C0883509F493C096
:101B7000883489F614D9CFCF883909F48AC038F56A
:101B8000883729F050F4883611F0803721F683E049
:101B90008093CF041092CD0455C0883809F479C0E1
:101BA000803919F0803809F0B6CF8091CD048032A9
:101BB00008F06FC0E091CD0481E08E0F8093CD04DA
:101BC0008091BB00F0E0E355FB4F80833BC0803B3E
:101BD00039F0D0F4803A09F477C0883A09F09BCF05
:101BE00084E08093CF041092AC041092AB04F0E038
:101BF000E0E019958091AB0481110FC081E08093E2
:101C0000AB0410928B0409C0803C09F4A9CF883C36
:101C100009F4A6CF883B09F07ECFE091AC0481E0C7
:101C20008E0F8093AC04F0E0E557FB4F80818093EA
:101C3000BB009091AC048091AB0429C08091F40466
:101C40008093BB0085EC8093BC0065CF9091F3043A
:101C50008091F204981758F5E091F30481E08E0F1B
:101C60008093F304F0E0EE52FB4F8081E9CFE091E6
:101C7000F30481E08E0F8093F3048091BB00F0E0C9
:101C8000EE52FB4F80839091F3048091F2049817F9
:101C9000C8F285E8D8CFE091F30481E08E0F8093FD
:101CA000F3048091BB00F0E0EE52FB4F8083809103
:101CB000D10481115FCF81E08093D00484EA8093C6
:101CC000BC001092CF0427CF85EC8093BC0010920B
:101CD000CF048091CD04803230F4E091CD04F0E067
:101CE000E355FB4F10826091CD0470E08DEA94E0E3
:101CF000F0E0E0E019951092CD040DCF1092CE04E3
:101D000039CFCF93DF93EEEFF4E01382128288EEA7
:101D100093E0A0E0B0E084839583A683B78384EA50
:101D200093E09183808385EC90E09587848784ECB1
:101D300090E09787868780EC90E0918B808B81EC98
:101D400090E0938B828B82EC90E0958B848B86EC79
:101D500090E0978B868B118E128E138E148EEBE98A
:101D6000F5E0168217821086118612861386148675
:101D7000158616861786108A118A128A138A148A83
:101D8000158AEBE1F6E084E1818385E18083E3E17C
:101D9000F6E08EED97E09683858381E084838383EC
:101DA00010821182128283E08783CCE0D6E084E245
:101DB000888386E2898384E690E09C838B839E837C
:101DC0008D8360E084E20E94D30360E089810E94F9
:101DD000D30360E088810E94A60360E089810E94AD
:101DE000A603E4EFF5E01382128286EB93E0918381
:101DF000808386E184838FEF858388E186838AE10F
:101E000087838CE180878EE1818780E282871386D9
:101E1000148615861686178681E026D9A1EEB5E0D0
:101E200085E215968C9315978BE016968C931697F2
:101E3000E3E4F2E0E4911796EC931797EDEFF1E00D
:101E4000E4911896EC93189740E85EE360E070E048
:101E50001D964D935D936D937C9350970E948606DB
:101E600080E00E94F90581E0DF91CF910C94F905A3
:101E7000CF93DF9300D01F92CDB7DEB7789484B5AF
:101E8000826084BD84B5816084BD85B5826085BD76
:101E900085B5816085BD80916E00816080936E0004
:101EA00010928100809181008260809381008091F6
:101EB00081008160809381008091800081608093A7
:101EC00080008091B10084608093B1008091B00067
:101ED00081608093B0008091910082608093910036
:101EE0008091910081608093910080919000816049
:101EF000809390008091A10082608093A1008091E6
:101F0000A10081608093A1008091A00081608093F6
:101F1000A0008091210182608093210180912101A4
:101F20008160809321018091200181608093200154
:101F300080917A00846080937A0080917A00826038
:101F400080937A0080917A00816080937A008091FA
:101F50007A00806880937A001092C1001092DD05AB
:101F60001092DE051092DF051092E00510929D059B
:101F700010929E0510929F051092A0050E94F204F7
:101F80006B017C014B015C0188EB880E8BE0981E95
:101F9000A11CB11C0E94F2046C157D058E059F05E5
:101FA00028F086169706A806B906A0F768EE73E033
:101FB00080E090E00E94C1040E949D010E94F20412
:101FC00060939D0570939E0580939F059093A00557
:101FD00060E374E08EEF94E092D90E94F2046B010A
:101FE0007C014B015C01EAE08E0E911CA11CB11C2E
:101FF0000E94F2046C157D058E059F0528F086165B
:102000009706A806B906A0F781E08093B1050E9463
:10201000F20460939D0570939E0580939F059093B5
:10202000A00561E474E08EEF94E069D982E01CD8E9
:1020300014D880E0A8D868E474E084EF95E05FD914
:1020400068EE73E080E090E00E94C10462E080915D
:10205000E6050E94D3030E94F204605D7740810987
:1020600091096093EA057093EB058093EC059093DA
:10207000ED0587E38093F3050E942D0880E083D867
:1020800065E574E084EF95E03AD981E07CD865E6B7
:1020900074E084EF95E033D98FE080930E060E94C0
:1020A0002A0719821A821B821C8204E714E087E740
:1020B000E82E84E0F82E8A8189838B818A838C8143
:1020C0008B83F80181918F010E94D5018C83CE0111
:1020D00001960E947C04609111067091120690E0B6
:1020E00080E00E94C104E016F10629F788E40E940E
:1020F000D501898385E40E94D5018A838CE40E94FE
:10210000D5018B838CE40E94D5018C83CE0101968E
:102110000E947C04609111067091120690E080E0AC
:102120000E94C10485E40E94D50189838CE40E9449
:10213000D5018A838CE40E94D5018B838FE40E94B1
:10214000D5018C83CE0101960E947C04609111061A
:102150007091120690E080E00E94C10404E010E05B
:102160008A8189838B818A838C818B831C82CE01B7
:1021700001960E947C04609111067091120690E015
:1021800080E00E94C1040150110951F781E00E94D2
:10219000C3086AE774E084EF95E0B1D80E949D011E
:1021A000AFD80E94E702FCCFFC0188279927E8946A
:1021B00021912032E9F3293010F02E30C8F32B3270
:1021C00039F02D3231F4689403C00BD0820F911D89
:1021D000219120532A30C8F31EF4909581959F4F8A
:1021E00008957AE0979F902D879F802D910D11245F
:1021F0000895E89409C097FB3EF4909580957095FA
:1022000061957F4F8F4F9F4F9923A9F0F92F96E942
:10221000BB279395F695879577956795B795F111B7
:10222000F8CFFAF4BB0F11F460FF1BC06F5F7F4F54
:102230008F4F9F4F16C0882311F096E911C0772366
:1022400021F09EE8872F762F05C0662371F096E86F
:10225000862F70E060E02AF09A95660F771F881F3E
:10226000DAF7880F9695879597F90895990F0008E2
:10227000550FAA0BE0E8FEEF16161706E807F90758
:10228000C0F012161306E407F50798F0621B730BF3
:10229000840B950B39F40A2661F0232B242B252B74
:1022A00021F408950A2609F4A140A6958FEF811D17
:1022B000811D08950BD078C069D028F06ED018F039
:1022C000952309F05AC05FC01124A2C07ED0A0F3AC
:1022D000959FD1F3950F50E0551F629FF001729FBB
:1022E000BB27F00DB11D639FAA27F00DB11DAA1FDA
:1022F000649F6627B00DA11D661F829F2227B00D27
:10230000A11D621F739FB00DA11D621F839FA00DB1
:10231000611D221F749F3327A00D611D231F849F01
:10232000600D211D822F762F6A2F11249F57504058
:102330008AF0E1F088234AF0EE0FFF1FBB1F661FF3
:10234000771F881F91505040A9F79E3F510570F0AC
:1023500014C05EC05F3FECF3983EDCF38695779542
:102360006795B795F795E7959F5FC1F7FE2B880FA7
:10237000911D9695879597F9089597F99F6780E83D
:1023800070E060E008959FEF80EC089500240A94C7
:102390001616170618060906089500240A94121640
:1023A0001306140605060895092E0394000C11F473
:1023B000882352F0BB0F40F4BF2B11F460FF04C020
:1023C0006F5F7F4F8F4F9F4F089557FD9058440F79
:1023D000551F59F05F3F71F04795880F97FB991F84
:1023E00061F09F3F79F08795089512161306140641
:1023F000551FF2CF4695F1DF08C0161617061806CE
:10240000991FF1CF86957105610508940895E894A8
:10241000BB2766277727CB0197F90895A1E21A2EEB
:10242000AA1BBB1BFD010DC0AA1FBB1FEE1FFF1F78
:10243000A217B307E407F50720F0A21BB30BE40BC8
:10244000F50B661F771F881F991F1A9469F760950F
:102450007095809590959B01AC01BD01CF010895C9
:102460005058BB27AA270ED09FCF90DF30F095DFC2
:1024700020F031F49F3F11F41EF485CF0EF4E09567
:10248000E7FB7BCFE92FA1DF80F3BA176207730761
:102490008407950718F071F49EF5B9CF0EF4E09516
:1024A0000B2EBA2FA02D0B01B90190010C01CA010E
:1024B000A0011124FF27591B99F0593F50F4503EB9
:1024C00068F11A16F040A22F232F342F4427585FAB
:1024D000F3CF469537952795A795F0405395C9F7C3
:1024E0007EF41F16BA0B620B730B840BBAF091507B
:1024F000A1F0FF0FBB1F661F771F881FC2F70EC01A
:10250000BA0F621F731F841F48F4879577956795EC
:10251000B795F7959E3F08F0B3CF9395880F08F0D5
:102520009927EE0F97958795089504D06894B11177
:102530006FCF089552DF88F09F5790F0B92F9927F9
:10254000B751A0F0D1F0660F771F881F991F1AF0BE
:10255000BA95C9F712C0B13081F059DFB1E00895E2
:1025600056CF672F782F8827B85F39F0B93FCCF363
:10257000869577956795B395D9F73EF490958095B4
:10258000709561957F4F8F4F9F4F08956FDE880B39
:10259000990B089597FB072E16F4009406D077FD4B
:1025A00008D013D007FC05D03EF4909581959F4F3D
:1025B0000895709561957F4F0895EE0FFF1F881F56
:1025C0008BBF0790F691E02D1994AA1BBB1B51E11C
:1025D00007C0AA1FBB1FA617B70710F0A61BB70B93
:1025E000881F991F5A95A9F780959095BC01CD0138
:1025F00008950F931F93CF93DF93CDB7DEB72E9738
:102600000FB6F894DEBF0FBECDBF0E891F89888D2F
:10261000998D26E02C831A83098397FF02C080E0FE
:1026200090E801979E838D83AE01445E5F4F6A8D73
:102630007B8DCE01019648D04D815E8157FD0AC049
:102640002F813885421753070CF49A01020F131F8C
:10265000F80110822E960FB6F894DEBF0FBECDBFE4
:10266000DF91CF911F910F9108950F931F93CF93F7
:10267000DF93CDB7DEB72E970FB6F894DEBF0FBE4F
:10268000CDBF0E891F8986E08C831A8309838FEF63
:102690009FE79E838D83AE01465E5F4F688D798D87
:1026A000CE01019611D02F813885020F131FF8013A
:1026B00010822E960FB6F894DEBF0FBECDBFDF910D
:1026C000CF911F910F9108952F923F924F925F9259
:1026D0006F927F928F929F92AF92BF92CF92DF9232
:1026E000EF92FF920F931F93CF93DF9300D000D010
:1026F00000D01F921F92CDB7DEB77C013B018A014B
:10270000FC0117821682838181FFD0C1CE01019620
:102710005C01F7019381F30193FD859193FF819112
:102720003F01882309F449C1853239F493FD85912D
:1027300093FF81913F01853221F4B70190E0CFD121
:10274000E8CF912C212C312CFFE1F31538F08B329E
:1027500011F190F4803209F1833229F137FC3CC049
:1027600020ED280F2A3050F536FE20C08AE0989ED2
:10277000200D1124922E06C08D3291F0803371F716
:10278000689430F8F30193FD859193FF81913F01A7
:102790008111DACF21C0689431F8689432F8F2CF11
:1027A000689433F8EFCF689434F8ECCFEAE02E9ECB
:1027B000200D1124222E689435F8E4CF8E3229F4AE
:1027C00036FCFBC0689436F8DDCF8C3619F468947B
:1027D00037F8D8CF8836B1F2982F9F7D9554933033
:1027E000D8F0833691F18337B1F1833509F05EC0BB
:1027F0002801F2E04F0E511CF801C080D180692DF4
:1028000070E036FC02C06FEF7FEFC60152D14C0181
:10281000689437F882010AC00C5F1F4FFFE3F98309
:1028200088248394912C6501E89437F833FE2AC0FC
:10283000522C8114910459F5552009F46ACFB7013F
:1028400080E290E04CD15A94F7CFF80180818983DF
:102850000E5F1F4FE5CF2801F2E04F0E511CF8012B
:10286000C080D180692D70E036FC02C06FEF7FEF31
:10287000C6012AD14C018201D7CFB70180E290E096
:102880002ED12A942814190409F0B8F7D1CFF601F3
:1028900037FC859137FE81916F01B70190E01FD120
:1028A00051105A94F1E08F1A9108C3CF843619F071
:1028B000893609F073C0F80137FE67C06081718105
:1028C000828193810C5F1F4FF32DFF763F2E97FF80
:1028D00009C090958095709561957F4F8F4F9F4F60
:1028E000689437F82AE030E0A50129D1C82ECA182B
:1028F0008C2C432C36FE0CC0E89440F8C91440F4EC
:1029000034FE05C032FC03C0F32DFE7E4F2E892C11
:1029100044FEA6C0FE01EC0DF11D8081803309F05C
:1029200098C0242D297E422E842D8870582E43FC79
:10293000A5C040FE9FC09C2C821418F42C0C922C35
:10294000981844FEA1C0B70180E390E0C8D042FED1
:1029500008C088E790E041FE02C088E590E0B7013A
:10296000BED0C91408F49CC0CA94D12C9FEFC91AD8
:10297000D90ACA0CDB1CF60182916F01B70190E005
:10298000AED0AC14BD04B9F757CF60817181072E6A
:10299000000C880B990B0E5F1F4F96CFD32CE89439
:1029A000D4F82AE030E08537E1F1232D297FD22EBB
:1029B0008F36A9F1F0F4883551F1F70186819781BE
:1029C0002B960FB6F894DEBF0FBECDBFDF91CF912F
:1029D0001F910F91FF90EF90DF90CF90BF90AF903D
:1029E0009F908F907F906F905F904F903F902F902F
:1029F0000895803749F0883701F7D4FE02C0689403
:102A0000D2F820E130E00DC06894D4F8F6CF34FE5F
:102A100003C0822F8660D82E20E132E002C028E079
:102A200030E0F801D7FE0EC0608171818281938110
:102A30000C5F1F4FA50183D0C82ECA183D2CE89407
:102A400037F856CF6081718190E080E00E5F1F4FB4
:102A5000F1CF42FC02C0839467CF8394839464CF08
:102A6000842D867809F460CFF6CFB70180E290E03C
:102A700036D083948214C8F3512C63CF522C58184B
:102A8000821408F45ECFF8CF842D867809F469CFDC
:102A90008BE241FE80E247FC8DE2B70190E060CF1F
:102AA000B70180E390E01BD09A945BCF8FEF9FEF4C
:102AB00087CFFC010590615070400110D8F78095D8
:102AC00090958E0F9F1F0895FC01615070400190FA
:102AD0000110D8F7809590958E0F9F1F08950F9342
:102AE0001F93CF93DF93182F092FEB018B8181FD6B
:102AF00009C01FEF0FEF812F902FDF91CF911F9112
:102B00000F91089582FF14C02E813F818C819D8199
:102B1000281739073CF4E881F981CF0101969983A0
:102B2000888310838E819F8101969F838E83E3CF5C
:102B3000E885F985812F1995892BA1F3DACFFA0160
:102B4000AA27283051F1203181F1E8946F936E7FEC
:102B50006E5F7F4F8F4F9F4FAF4FB1E03ED0B4E0DD
:102B60003CD0670F781F891F9A1FA11D680F791F1E
:102B70008A1F911DA11D6A0F711D811D911DA11D2F
:102B800020D009F468943F912AE0269F112430193F
:102B9000305D3193DEF6CF010895462F4770405DDA
:102BA0004193B3E00FD0C9F7F6CF462F4F70405D89
:102BB0004A3318F0495D31FD4052419302D0A9F7E4
:102BC000EACFB4E0A6959795879577956795BA95DE
:102BD000C9F700976105710508959B01AC010A2EA4
:102BE00006945795479537952795BA95C9F7620F7B
:0E2BF000731F841F951FA01D0895F894FFCF3A
:102BFE000808080848484848494949494848484843
:102C0E000808080800000000300000003600000030
:102C1E003630000036360000363630003636360096
:102C2E0036363630363636360636363600363636A2
:102C3E000006363600003636000006360000003636
:102C4E00000000060000000000000002000000204E
:102C5E000000020000002000000200000020000022
:102C6E000200000020000000100000000400000020
:102C7E00001000000004000000001000000004001E
:102C8E00000000100000000400000000000000041E
:102C9E0000000010000004000000100000040000FE
:102CAE0000100000040000001000000020000000D2
:102CBE0002000000002000000002000000002000C2
:102CCE0000000200000000200000000200000000D2
:102CDE0000000006000000300000060000000600A4
:102CEE00000030000006000000300000060000006A
:102CFE00300000007040404600000006000000005A
:102D0E0000000006000000030000010100010100A8
:102D1E00010100002100000030000000180000003A
:102D2E000808000000080800000008080000000C59
:102D3E0000000044000040400040400040400000C1
:102D4E004000000000000000400000004040000075
:102D5E000040400000004040000000440000000C15
:102D6E00000008080008080008080000180000000D
:102D7E0030000000210000000101000000010100F0
:102D8E00000001010000000300000006000000002A
:102D9E00000000007C02E6011402C8024502230274
:102DAE00370200000000D008E6012707CE060D0A04
:102DBE0000564D4450455F003A323A007C005F5653
:102DCE004D44504500444854204552524F52212103
:102DDE000048756D69646974793A2025642E253032
:102DEE00326425250054656D703A20202025642E0E
:102DFE0025303264202A6300446174653A253032EE
:102E0E00752D253032752D253032750054696D655E
:102E1E003A253032753A253032753A253032750002
:102E2E00564D4450565F317C315F564D4450560AD4
:102E3E0000564D4450525F0048656C6C6F20576FC2
:102E4E00726C6421004E6F7720204F70656E696E34
:102E5E006721212100506C6561736520576169748B
:102E6E002121210048454C4C4F00446F6E652D2D9D
:062E7E002D2D2D2D2D006D
:00000001FF
